:1000000001308A0004280000FF238316900000308E
:100010008A008A2933308400000803191D28013022
:10002000A100A001A00B1228A10B11284A30A000AA
:10003000A00B18281B28800B0F280800B001A8016E
:10004000A701A601A50185193028AD0A0319AE0A3A
:100050002D082E04031D2F280030A100702823280E
:100060002E08003C03186E28FF3A031D3B282D087C
:10007000903C03186E28B00130081A3C031C6A2813
:10008000851940285330A000A00B4428851D4B281B
:100090000030A1007028A630A000A00B4D28000061
:1000A00085195928A8150310A80CA70CA60CA50C97
:1000B0005E280310A80CA70CA60CA50CA630A00067
:1000C000A00B60280000851968280030A100702866
:1000D000B00A3C280130A100702870280030A1002F
:1000E000A10803198929A4187F282808AC0027082B
:1000F000AB002608AA002508A900A4148929A41089
:1001000025082902031D892926082A02031D892999
:1001100027082B02031D892928082C02031D892981
:10012000B20132087D3C031CC5282708B300320801
:1001300083169B009C131C141A0883123302031DA0
:10014000C2282608B30001303207B40034088316F1
:100150009B009C131C141A0883123302031DC2282F
:100160002508B30002303207B400340883169B0020
:100170009C131C141A0883123302031DC228013079
:10018000A100C7280330B20791280030A100A108C0
:100190000319E6282708B000B01FD028301BD42848
:1001A000B01BD428301FE428B1013108313C031CB6
:1001B000E22820308506103085061E30B3000A2064
:1001C000B10AD5288512051624108529241C8529F5
:1001D000B30133087D3C031C1929330883169B00A7
:1001E0009C131C141A08FF3C031D152901308312AF
:1001F0003307B400340883169B009C131C141A08A0
:10020000FF3C031D1529023083123307B400340864
:1002100083169B009C131C141A08FF3C031D152910
:1002200083123308A1001B29831603308312B307FE
:10023000E928FF30A1002108B20001303207031D78
:100240002529FF30A100792979292708B3000B0857
:10025000A0008B13320883169B0083122708831695
:100260009A009C131C1555309D00AA309D009C14CB
:100270009C1838291C11831220088B040130320786
:10028000B3002608B4000B08A0008B1333088316B4
:100290009B008312260883169A009C131C15553068
:1002A0009D00AA309D009C149C1854291C11831297
:1002B00020088B0402303207B3002508B4000B0875
:1002C000A0008B13330883169B0083122508831626
:1002D0009A009C131C1555309D00AA309D009C145B
:1002E0009C1870291C11831220088B048B1200307B
:1002F000A100A108031D8529241005160230B200B3
:100300009630B3000A20B20B8029AC01AB01AA01E0
:10031000A901D12903081F3983003F30A0002130F3
:10032000840083138001840AA00B9229A001A801F4
:10033000A701A601A501AC01AB01AA01A901AE016B
:10034000AD01AF011F1383161F109F101F119F11C6
:1003500007308312990009308316850083128512B5
:1003600005161F1383161F109F101F119F111F12B8
:100370009F121F1383129F131F1483160108C03985
:10038000073881003530831290008316990183125B
:100390002410051CD02924140512C830B3000A20EB
:0603A0001E28C9296300BC
:0207FE00603465
:02400E0004119B
:00000001FF
;PIC12F675
;CRC=5C8B  CREATED="21-dez-23 18:23"
